{
  "_format": "hh-sol-artifact-1",
  "contractName": "Supplychain",
  "sourceName": "contracts/supplychain.sol",
  "abi": [
    {
      "anonymous": false,
      "inputs": [
        {
          "indexed": false,
          "internalType": "string",
          "name": "dproductId",
          "type": "string"
        },
        {
          "indexed": false,
          "internalType": "string",
          "name": "dname",
          "type": "string"
        },
        {
          "indexed": false,
          "internalType": "string",
          "name": "dproductName",
          "type": "string"
        },
        {
          "indexed": false,
          "internalType": "string",
          "name": "status",
          "type": "string"
        }
      ],
      "name": "DistributorDetails",
      "type": "event"
    },
    {
      "anonymous": false,
      "inputs": [
        {
          "indexed": false,
          "internalType": "string",
          "name": "fproductId",
          "type": "string"
        },
        {
          "indexed": false,
          "internalType": "string",
          "name": "fname",
          "type": "string"
        },
        {
          "indexed": false,
          "internalType": "string",
          "name": "fproductName",
          "type": "string"
        },
        {
          "indexed": false,
          "internalType": "string",
          "name": "status",
          "type": "string"
        }
      ],
      "name": "FarmerDetails",
      "type": "event"
    },
    {
      "anonymous": false,
      "inputs": [
        {
          "indexed": false,
          "internalType": "string",
          "name": "rproductId",
          "type": "string"
        },
        {
          "indexed": false,
          "internalType": "string",
          "name": "rname",
          "type": "string"
        },
        {
          "indexed": false,
          "internalType": "string",
          "name": "rproductName",
          "type": "string"
        },
        {
          "indexed": false,
          "internalType": "string",
          "name": "status",
          "type": "string"
        }
      ],
      "name": "RetailerDetails",
      "type": "event"
    },
    {
      "inputs": [
        {
          "internalType": "string",
          "name": "_dproductId",
          "type": "string"
        },
        {
          "internalType": "string",
          "name": "_dname",
          "type": "string"
        },
        {
          "internalType": "string",
          "name": "_dlocation",
          "type": "string"
        },
        {
          "internalType": "uint256",
          "name": "_dquantity",
          "type": "uint256"
        },
        {
          "internalType": "uint256",
          "name": "_dprice",
          "type": "uint256"
        },
        {
          "internalType": "string",
          "name": "_dproductName",
          "type": "string"
        },
        {
          "internalType": "string",
          "name": "_dtransportMethod",
          "type": "string"
        }
      ],
      "name": "DistributorInsertDetails",
      "outputs": [],
      "stateMutability": "nonpayable",
      "type": "function"
    },
    {
      "inputs": [
        {
          "internalType": "string",
          "name": "_fproductId",
          "type": "string"
        },
        {
          "internalType": "string",
          "name": "_fname",
          "type": "string"
        },
        {
          "internalType": "string",
          "name": "_flocation",
          "type": "string"
        },
        {
          "internalType": "uint256",
          "name": "_fquantity",
          "type": "uint256"
        },
        {
          "internalType": "uint256",
          "name": "_fprice",
          "type": "uint256"
        },
        {
          "internalType": "string",
          "name": "_fproductName",
          "type": "string"
        },
        {
          "internalType": "uint256",
          "name": "_fbatchNo",
          "type": "uint256"
        },
        {
          "internalType": "string",
          "name": "_fmfgDate",
          "type": "string"
        },
        {
          "internalType": "string",
          "name": "_fexpiryDate",
          "type": "string"
        }
      ],
      "name": "FarmerInsertDetails",
      "outputs": [],
      "stateMutability": "nonpayable",
      "type": "function"
    },
    {
      "inputs": [
        {
          "internalType": "string",
          "name": "_rproductId",
          "type": "string"
        },
        {
          "internalType": "string",
          "name": "_rname",
          "type": "string"
        },
        {
          "internalType": "string",
          "name": "_rlocation",
          "type": "string"
        },
        {
          "internalType": "uint256",
          "name": "_rquantity",
          "type": "uint256"
        },
        {
          "internalType": "uint256",
          "name": "_rprice",
          "type": "uint256"
        },
        {
          "internalType": "string",
          "name": "_rproductName",
          "type": "string"
        },
        {
          "internalType": "string",
          "name": "_rtransportMethod",
          "type": "string"
        }
      ],
      "name": "RetailerInsertDetails",
      "outputs": [],
      "stateMutability": "nonpayable",
      "type": "function"
    },
    {
      "inputs": [
        {
          "internalType": "string",
          "name": "_productId",
          "type": "string"
        }
      ],
      "name": "getCurrentRole",
      "outputs": [
        {
          "internalType": "enum Supplychain.SupplyChainRole",
          "name": "",
          "type": "uint8"
        }
      ],
      "stateMutability": "view",
      "type": "function"
    },
    {
      "inputs": [
        {
          "internalType": "string",
          "name": "_productId",
          "type": "string"
        }
      ],
      "name": "getProdStatus",
      "outputs": [
        {
          "internalType": "enum Supplychain.CheckProductStatus",
          "name": "",
          "type": "uint8"
        }
      ],
      "stateMutability": "view",
      "type": "function"
    },
    {
      "inputs": [
        {
          "internalType": "string",
          "name": "_productId",
          "type": "string"
        }
      ],
      "name": "getProductJourney",
      "outputs": [
        {
          "internalType": "string",
          "name": "",
          "type": "string"
        }
      ],
      "stateMutability": "view",
      "type": "function"
    }
  ],
  "bytecode": "0x6080604052348015600f57600080fd5b506122898061001f6000396000f3fe608060405234801561001057600080fd5b50600436106100625760003560e01c806336a49d7d146100675780636b5ed7ca1461007c5780639157d674146100a5578063f01da4e1146100b8578063f8b951e5146100cb578063f9da7937146100de575b600080fd5b61007a610075366004611a73565b6100fe565b005b61008f61008a366004611ba2565b6104ab565b60405161009c9190611c15565b60405180910390f35b61007a6100b3366004611c28565b6104f9565b61007a6100c6366004611c28565b6108ce565b61008f6100d9366004611ba2565b610c53565b6100f16100ec366004611ba2565b610ca7565b60405161009c9190611d72565b60008951116101285760405162461bcd60e51b815260040161011f90611d85565b60405180910390fd5b6000805260056020526040517f05b8ccbb9d4d8fb16ea74ce3c29a41f1b461fbdaff4714a0d9a8eb05499746bc90610161908b90611dbc565b9081526040519081900360200190205460ff16156101d35760405162461bcd60e51b815260206004820152602960248201527f50726f6475637420494420616c72656164792065786973747320666f72204661604482015268726d657220726f6c6560b81b606482015260840161011f565b6040518061012001604052808a81526020018981526020018881526020018781526020018681526020018581526020018481526020018381526020018281525060018a6040516102239190611dbc565b908152604051908190036020019020815181906102409082611e61565b50602082015160018201906102559082611e61565b506040820151600282019061026a9082611e61565b50606082015160038201556080820151600482015560a082015160058201906102939082611e61565b5060c0820151600682015560e082015160078201906102b29082611e61565b5061010082015160088201906102c89082611e61565b50905050600060048a6040516102de9190611dbc565b908152604051908190036020019020601701805461ff00191661010083600281111561030c5761030c611bde565b02179055507f1ed9ffb7680bbce3f7a01c39b8d311ed1966ec950ead39ec05976c0124fccad689898660405161034493929190611f1f565b60405180910390a16040518061012001604052808a81526020018981526020018881526020018781526020018681526020018581526020018481526020018381526020018281525060048a60405161039c9190611dbc565b908152604051908190036020019020815181906103b99082611e61565b50602082015160018201906103ce9082611e61565b50604082015160028201906103e39082611e61565b50606082015160038201556080820151600482015560a0820151600582019061040c9082611e61565b5060c0820151600682015560e0820151600782019061042b9082611e61565b5061010082015160088201906104419082611e61565b5050600080525060056020526040516001907f05b8ccbb9d4d8fb16ea74ce3c29a41f1b461fbdaff4714a0d9a8eb05499746bc90610480908c90611dbc565b908152604051908190036020019020805491151560ff19909216919091179055505050505050505050565b6000808251116104cd5760405162461bcd60e51b815260040161011f90611d85565b6004826040516104dd9190611dbc565b9081526040519081900360200190206017015460ff1692915050565b600087511161051a5760405162461bcd60e51b815260040161011f90611d85565b600260005260056020526040517f89832631fb3c3307a103ba2c84ab569c64d6182a18893dcd163f0f1c2090733a90610554908990611dbc565b9081526040519081900360200190205460ff16156105c85760405162461bcd60e51b815260206004820152602b60248201527f50726f6475637420494420616c72656164792065786973747320666f7220526560448201526a7461696c657220726f6c6560a81b606482015260840161011f565b6040518060e001604052808881526020018781526020018681526020018581526020018481526020018381526020018281525060038860405161060b9190611dbc565b908152604051908190036020019020815181906106289082611e61565b506020820151600182019061063d9082611e61565b50604082015160028201906106529082611e61565b50606082015160038201556080820151600482015560a0820151600582019061067b9082611e61565b5060c082015160068201906106909082611e61565b509050506040518060e00160405280888152602001878152602001868152602001858152602001848152602001838152602001828152506004886040516106d79190611dbc565b908152604051908190036020019020815160109091019081906106fa9082611e61565b506020820151600182019061070f9082611e61565b50604082015160028201906107249082611e61565b50606082015160038201556080820151600482015560a0820151600582019061074d9082611e61565b5060c082015160068201906107629082611e61565b5090505060026004886040516107789190611dbc565b908152604051908190036020019020601701805460ff191660018360028111156107a4576107a4611bde565b0217905550336004886040516107ba9190611dbc565b908152602001604051809103902060170160026101000a8154816001600160a01b0302191690836001600160a01b0316021790555060026004886040516108019190611dbc565b908152604051908190036020019020601701805461ff00191661010083600281111561082f5761082f611bde565b02179055507fdde06215d53d6ac0857838335876af616bee552a91cb16fea09835197f54a76787878460405161086793929190611f1f565b60405180910390a160016005600060025b600281111561088957610889611bde565b8152602001908152602001600020886040516108a59190611dbc565b908152604051908190036020019020805491151560ff1990921691909117905550505050505050565b60008751116108ef5760405162461bcd60e51b815260040161011f90611d85565b600160005260056020526040517f1471eb6eb2c5e789fc3de43f8ce62938c7d1836ec861730447e2ada8fd81017b90610929908990611dbc565b9081526040519081900360200190205460ff16156109a05760405162461bcd60e51b815260206004820152602e60248201527f50726f6475637420494420616c72656164792065786973747320666f7220446960448201526d737472696275746f7220726f6c6560901b606482015260840161011f565b6040518060e00160405280888152602001878152602001868152602001858152602001848152602001838152602001828152506002886040516109e39190611dbc565b90815260405190819003602001902081518190610a009082611e61565b5060208201516001820190610a159082611e61565b5060408201516002820190610a2a9082611e61565b50606082015160038201556080820151600482015560a08201516005820190610a539082611e61565b5060c08201516006820190610a689082611e61565b509050506040518060e0016040528088815260200187815260200186815260200185815260200184815260200183815260200182815250600488604051610aaf9190611dbc565b90815260405190819003602001902081516009909101908190610ad29082611e61565b5060208201516001820190610ae79082611e61565b5060408201516002820190610afc9082611e61565b50606082015160038201556080820151600482015560a08201516005820190610b259082611e61565b5060c08201516006820190610b3a9082611e61565b509050506001600488604051610b509190611dbc565b908152604051908190036020019020601701805460ff19166001836002811115610b7c57610b7c611bde565b021790555033600488604051610b929190611dbc565b908152602001604051809103902060170160026101000a8154816001600160a01b0302191690836001600160a01b031602179055506001600488604051610bd99190611dbc565b908152604051908190036020019020601701805461ff001916610100836002811115610c0757610c07611bde565b02179055507f7722fde6b1ce7216155e9d28d8176f0b6748b2e3059798bcbaba80f51b31a237878784604051610c3f93929190611f1f565b60405180910390a160016005600082610878565b600080825111610c755760405162461bcd60e51b815260040161011f90611d85565b600482604051610c859190611dbc565b9081526040519081900360200190206017015460ff6101009091041692915050565b60606000825111610cca5760405162461bcd60e51b815260040161011f90611d85565b6000600483604051610cdc9190611dbc565b9081526040519081900360200190206001018054610cf990611dd8565b905011610d3c5760405162461bcd60e51b8152602060048201526011602482015270141c9bd91d58dd081b9bdd08199bdd5b99607a1b604482015260640161011f565b6000600483604051610d4e9190611dbc565b908152604080519182900360200182206101e083019091528054829060c0820190839082908290610d7e90611dd8565b80601f0160208091040260200160405190810160405280929190818152602001828054610daa90611dd8565b8015610df75780601f10610dcc57610100808354040283529160200191610df7565b820191906000526020600020905b815481529060010190602001808311610dda57829003601f168201915b50505050508152602001600182018054610e1090611dd8565b80601f0160208091040260200160405190810160405280929190818152602001828054610e3c90611dd8565b8015610e895780601f10610e5e57610100808354040283529160200191610e89565b820191906000526020600020905b815481529060010190602001808311610e6c57829003601f168201915b50505050508152602001600282018054610ea290611dd8565b80601f0160208091040260200160405190810160405280929190818152602001828054610ece90611dd8565b8015610f1b5780601f10610ef057610100808354040283529160200191610f1b565b820191906000526020600020905b815481529060010190602001808311610efe57829003601f168201915b505050505081526020016003820154815260200160048201548152602001600582018054610f4890611dd8565b80601f0160208091040260200160405190810160405280929190818152602001828054610f7490611dd8565b8015610fc15780601f10610f9657610100808354040283529160200191610fc1565b820191906000526020600020905b815481529060010190602001808311610fa457829003601f168201915b5050505050815260200160068201548152602001600782018054610fe490611dd8565b80601f016020809104026020016040519081016040528092919081815260200182805461101090611dd8565b801561105d5780601f106110325761010080835404028352916020019161105d565b820191906000526020600020905b81548152906001019060200180831161104057829003601f168201915b5050505050815260200160088201805461107690611dd8565b80601f01602080910402602001604051908101604052809291908181526020018280546110a290611dd8565b80156110ef5780601f106110c4576101008083540402835291602001916110ef565b820191906000526020600020905b8154815290600101906020018083116110d257829003601f168201915b5050505050815250508152602001600982016040518060e001604052908160008201805461111c90611dd8565b80601f016020809104026020016040519081016040528092919081815260200182805461114890611dd8565b80156111955780601f1061116a57610100808354040283529160200191611195565b820191906000526020600020905b81548152906001019060200180831161117857829003601f168201915b505050505081526020016001820180546111ae90611dd8565b80601f01602080910402602001604051908101604052809291908181526020018280546111da90611dd8565b80156112275780601f106111fc57610100808354040283529160200191611227565b820191906000526020600020905b81548152906001019060200180831161120a57829003601f168201915b5050505050815260200160028201805461124090611dd8565b80601f016020809104026020016040519081016040528092919081815260200182805461126c90611dd8565b80156112b95780601f1061128e576101008083540402835291602001916112b9565b820191906000526020600020905b81548152906001019060200180831161129c57829003601f168201915b5050505050815260200160038201548152602001600482015481526020016005820180546112e690611dd8565b80601f016020809104026020016040519081016040528092919081815260200182805461131290611dd8565b801561135f5780601f106113345761010080835404028352916020019161135f565b820191906000526020600020905b81548152906001019060200180831161134257829003601f168201915b5050505050815260200160068201805461137890611dd8565b80601f01602080910402602001604051908101604052809291908181526020018280546113a490611dd8565b80156113f15780601f106113c6576101008083540402835291602001916113f1565b820191906000526020600020905b8154815290600101906020018083116113d457829003601f168201915b5050505050815250508152602001601082016040518060e001604052908160008201805461141e90611dd8565b80601f016020809104026020016040519081016040528092919081815260200182805461144a90611dd8565b80156114975780601f1061146c57610100808354040283529160200191611497565b820191906000526020600020905b81548152906001019060200180831161147a57829003601f168201915b505050505081526020016001820180546114b090611dd8565b80601f01602080910402602001604051908101604052809291908181526020018280546114dc90611dd8565b80156115295780601f106114fe57610100808354040283529160200191611529565b820191906000526020600020905b81548152906001019060200180831161150c57829003601f168201915b5050505050815260200160028201805461154290611dd8565b80601f016020809104026020016040519081016040528092919081815260200182805461156e90611dd8565b80156115bb5780601f10611590576101008083540402835291602001916115bb565b820191906000526020600020905b81548152906001019060200180831161159e57829003601f168201915b5050505050815260200160038201548152602001600482015481526020016005820180546115e890611dd8565b80601f016020809104026020016040519081016040528092919081815260200182805461161490611dd8565b80156116615780601f1061163657610100808354040283529160200191611661565b820191906000526020600020905b81548152906001019060200180831161164457829003601f168201915b5050505050815260200160068201805461167a90611dd8565b80601f01602080910402602001604051908101604052809291908181526020018280546116a690611dd8565b80156116f35780601f106116c8576101008083540402835291602001916116f3565b820191906000526020600020905b8154815290600101906020018083116116d657829003601f168201915b505050919092525050508152601782015460209091019060ff16600281111561171e5761171e611bde565b600281111561172f5761172f611bde565b81526020016017820160019054906101000a900460ff16600281111561175757611757611bde565b600281111561176857611768611bde565b8152601791909101546201000090046001600160a01b031660209182015260408051808301909152600081528251909101515191925090156117d857815160208082015160408084015160a09094015190516117c694929301611f85565b60405160208183030381529060405290505b6020808301510151511561181e576020808301518082015160408083015160a090930151905161180c94869492910161200d565b60405160208183030381529060405290505b604082015160200151511561187a5760408083015160208101519181015160a082015160809092015184939290611854906118ab565b6040516020016118689594939291906120b5565b60405160208183030381529060405290505b80516000036118a45760405180606001604052806021815260200161223360219139949350505050565b9392505050565b6060816000036118d25750506040805180820190915260018152600360fc1b602082015290565b8160005b81156118fc57806118e681612198565b91506118f59050600a836121b1565b91506118d6565b6000816001600160401b03811115611916576119166119d0565b6040519080825280601f01601f191660200182016040528015611940576020820181803683370190505b509050815b85156119c7576119566001826121d3565b90506000611965600a886121b1565b61197090600a6121ec565b61197a90886121d3565b611985906030612203565b90508060f81b83838151811061199d5761199d61221c565b60200101906001600160f81b031916908160001a9053506119bf600a886121b1565b965050611945565b50949350505050565b634e487b7160e01b600052604160045260246000fd5b600082601f8301126119f757600080fd5b81356001600160401b03811115611a1057611a106119d0565b604051601f8201601f19908116603f011681016001600160401b0381118282101715611a3e57611a3e6119d0565b604052818152838201602001851015611a5657600080fd5b816020850160208301376000918101602001919091529392505050565b60008060008060008060008060006101208a8c031215611a9257600080fd5b89356001600160401b03811115611aa857600080fd5b611ab48c828d016119e6565b99505060208a01356001600160401b03811115611ad057600080fd5b611adc8c828d016119e6565b98505060408a01356001600160401b03811115611af857600080fd5b611b048c828d016119e6565b97505060608a0135955060808a0135945060a08a01356001600160401b03811115611b2e57600080fd5b611b3a8c828d016119e6565b94505060c08a0135925060e08a01356001600160401b03811115611b5d57600080fd5b611b698c828d016119e6565b9250506101008a01356001600160401b03811115611b8657600080fd5b611b928c828d016119e6565b9150509295985092959850929598565b600060208284031215611bb457600080fd5b81356001600160401b03811115611bca57600080fd5b611bd6848285016119e6565b949350505050565b634e487b7160e01b600052602160045260246000fd5b60038110611c1257634e487b7160e01b600052602160045260246000fd5b50565b60208101611c2283611bf4565b91905290565b600080600080600080600060e0888a031215611c4357600080fd5b87356001600160401b03811115611c5957600080fd5b611c658a828b016119e6565b97505060208801356001600160401b03811115611c8157600080fd5b611c8d8a828b016119e6565b96505060408801356001600160401b03811115611ca957600080fd5b611cb58a828b016119e6565b955050606088013593506080880135925060a08801356001600160401b03811115611cdf57600080fd5b611ceb8a828b016119e6565b92505060c08801356001600160401b03811115611d0757600080fd5b611d138a828b016119e6565b91505092959891949750929550565b60005b83811015611d3d578181015183820152602001611d25565b50506000910152565b60008151808452611d5e816020860160208601611d22565b601f01601f19169290920160200192915050565b6020815260006118a46020830184611d46565b6020808252601a908201527f50726f647563742049442063616e6e6f7420626520656d707479000000000000604082015260600190565b60008251611dce818460208701611d22565b9190910192915050565b600181811c90821680611dec57607f821691505b602082108103611e0c57634e487b7160e01b600052602260045260246000fd5b50919050565b601f821115611e5c57806000526020600020601f840160051c81016020851015611e395750805b601f840160051c820191505b81811015611e595760008155600101611e45565b50505b505050565b81516001600160401b03811115611e7a57611e7a6119d0565b611e8e81611e888454611dd8565b84611e12565b6020601f821160018114611ec25760008315611eaa5750848201515b600019600385901b1c1916600184901b178455611e59565b600084815260208120601f198516915b82811015611ef25787850151825560209485019460019092019101611ed2565b5084821015611f105786840151600019600387901b60f8161c191681555b50505050600190811b01905550565b608081526000611f326080830186611d46565b8281036020840152611f448186611d46565b90508281036040840152611f588185611d46565b83810360609094019390935250506008815267125b9cd95c9d195960c21b60208201526040019392505050565b6a02330b936b2b210313c9d160ad1b815260008451611fab81600b850160208901611d22565b640161030ba160dd1b600b918401918201528451611fd0816010840160208901611d22565b600b818301019150506a01610383937b23ab1ba1d160ad1b60058201528351612000816010840160208801611d22565b0160100195945050505050565b6000855161201f818460208a01611d22565b720103e102234b9ba3934b13aba32b210313c9d1606d1b908301908152855161204f816013840160208a01611d22565b6601610333937b6960cd1b60139290910191820152845161207781601a840160208901611d22565b6013818301019150506a01610383937b23ab1ba1d160ad1b600782015283516120a7816012840160208801611d22565b016012019695505050505050565b600086516120c7818460208b01611d22565b6b0103e1029b7b63210313c9d160a51b90830190815286516120f081600c840160208b01611d22565b640161030ba160dd1b600c92909101918201528551612116816011840160208a01611d22565b600c818301019150506a01610383937b23ab1ba1d160ad1b60058201528451612146816010840160208901611d22565b600581830101915050670161034b7102939960c51b600b8201528351612173816013840160208801611d22565b01601301979650505050505050565b634e487b7160e01b600052601160045260246000fd5b6000600182016121aa576121aa612182565b5060010190565b6000826121ce57634e487b7160e01b600052601260045260246000fd5b500490565b818103818111156121e6576121e6612182565b92915050565b80820281158282048414176121e6576121e6612182565b60ff81811683821601908111156121e6576121e6612182565b634e487b7160e01b600052603260045260246000fdfe4e6f206a6f75726e657920696e666f726d6174696f6e20617661696c61626c652ea26469706673582212207be11a523c9b278211cc39b8d7645b72c079d3ea6e3166c07626a38af18f31d064736f6c634300081c0033",
  "linkReferences": {},
  "deployedLinkReferences": {}
}